:03000000020DCB23
:0C0DCB00787FE4F6D8FD758143020E121B
:0512C300000000002204
:0C12B700C2B3D2B41212C3C2B50212C3FB
:10125F00D2B41212C3D2B51212C3D2B51212C3C274
:04126F00B40212C3F0
:10127300C2B41212C3C2B51212C3D2B41212C3C281
:04128300B50212C3DB
:10116400E4FEC2B41212C3EF3392B51212C3D2B466
:101174001212C3EF25E0FF0EBE08E7C2B40212C389
:1010FE00E4FEFDC2B41212C330B5047F018002E4D7
:10110E00FFEE25E04FFED2B41212C30DBD08E4AFC0
:01111E0006CA
:01111F0022AD
:0B10DB001211641210E6AF0512116440
:1010E600E4FFD2B41212C330B509EFC394FF500324
:0810F6000F80F4C2B40212C322
:0211E200AD0757
:1011E40012125F7FA81210DB12125F7FA912116422
:0911F4001210E61210FE12127333
:0111FD0022CF
:10124A00AC0712125F7FA81211641210E6AF0412E3
:05125A0010DB0212731D
:1011840080818283848586879091929394959697A3
:1011940088898A8B8C8D8E8F98999A9B9C9D9E9F13
:0F11200012112FEC54F0FF12112FECC454F0FFFA
:10112F00E4FEC2A7EF25E0FF92A6D2A7C2A70EBE8C
:02113F0008F0B6
:01114100228B
:10101900E4FFFEFDEE25E0FEC2A7D2A7C2A730A6D7
:10102900010E0DBD08EEE4FDEF25E0FFC2A7D2A732
:10103900C2A730A6010F0DBD08EEEF540FFFEE5405
:03104900F02FFF86
:01104C002281
:0D12AA007FFC12112F121019EF20E7F42223
:1010AE0075F008E542A42543F582E435F0F583E5B5
:0E10BE00822484F582E5833411F583E493FFE8
:0F10CC00AC07D2A51212AA7FF8121120C2A522DA
:0F129B00AC07D2A51212AA7FFA121120C2A52207
:101219007F301210CC7F031210CC7F0C1210CC7FC0
:09122900011210CC7F060210CC6A
:10104D00AB07AA05EB14600C14600D14600E24039D
:10105D007B80800A7B9080067B8880027B98530280
:10106D00077F301210CCEA2BFF1210CCEA2BFF02B7
:02107D0010CC95
:1011FE007F301210CC7F801210CCE4FB7F201212B5
:0B120E009B0BBB40F7E4FDFF02104DFE
:100F54008F428D437F301210CC1210AE120D3760C9
:100F640037E543B40805E4F5430542E542B4040318
:100F7400E4F5421210AE120D37FF12129B740129D0
:100F8400F9E43AFA120D37FF60D212129B74012968
:090F9400F9E43AFA054380C42295
:10022300C7EBB0B4CAD6D6B8BFAACBF800C3C5D201
:10023300D1B4F2BFAA00B1E0BAC5CEAA3A00C3BB9B
:10024300CBD1CBF7B5BDD6B8CEC600C7EBD6D8D089
:10025300C2B0B4CAD6D6B800BDD3CAD5B0FCB3F6C3
:10026300B4ED00C7EBB0B4CAD6D6B800B8C3D6B89D
:10027300CEC6D2D1B4E6B4A2002020B0B4C8CED248
:10028300E2BCFCBCCCD0F800C7EBD4D9B4CEB0B43C
:10029300CAD6D6B800D6B8CEC6B2C9BCAFB3C9B9F0
:1002A300A600D6B8CEC6B2C9BCAFCAA7B0DC00C7D9
:1002B300EBD6D8D0C2B2D9D7F700CAE4C8EBC9BECF
:1002C300C8A5B5C4D6B8CEC6BAC500C9BEC8A5D6DA
:1002D300B8CEC6BAC5B3C9B9A6A3A100C9BEC8A53D
:1002E300D6B8CEC6BAC5CAA7B0DCA3A100C7EBCAAD
:1002F300E4C8EBD0C2C3DCC2EB00C7EBD4D9B4CEA5
:10030300CAE4C8EBD0C2C3DCC2EB00C3DCC2EBD08F
:10031300DEB8C4B3C9B9A6002020C3DCC2EBD0DE6B
:10032300B8C4CAA7B0DC202000C1BDB4CECAE4C89B
:10033300EBB5C4C3DCC2EBB2BB00D2BBD6C2A3AC29
:10034300C7EBD6D8D0C2B2D9D7F700C7EBCAE4C837
:10035300EBC3DCC2EBA3BA00B0B4BCFC31203A203F
:10036300D4F6BCD3D6B8CEC600B0B4BCFC32203A67
:1003730020C9BEC8A5D6B8CEC600B0B4BCFC3320D5
:100383003A20CAD6B6AFBFAACBF800B0B4BCFC348F
:10039300203A20D0DEB8C4C3DCC2EB00C3DCC2EB1E
:1003A300B4EDCEF3002020C7EBD6D8D0C2B2D9D754
:1003B300F7A3A100BBB6D3ADCAB9D3C300D6B8CE99
:1003C300C6C3C5BDFBCFB5CDB30030303030303000
:100FE400012A000620010203040506013014011B36
:100FF40014013114012F0B47001000000000000001
:10100400005000000000000000000000000000008C
:0410140000000000D8
:1011C400D3EF9400EE940040147D6E7C00ED1D700E
:0D11D400011CED4C70F7EF1F70E61E80E36C
:0111E10022EB
:100EB500EF75F00AA4F53FE4F538AF3F1211E2747F
:100EC500392538F8A6077F0A7E001211C4053F05AB
:100ED50038E538C3940640E2E4F53874102538F552
:100EE50082E43400F583E0FF74392538F8E6B50768
:100EF500057537018003E4F5370538E538B406DBB9
:020F0500AF3704
:010F070022C7
:1011A400E4F536AF36120EB5BF0209E5362402F572
:0F11B4002A7F01220536E536C3940140E67F000D
:0111C3002209
:0C114200120F088F1A120E577F1E7E003D
:10114E00EF1FAA0670011E4A600BE4FDEDC3947DED
:05115E0050EE0D80F7CA
:011163002269
:10128700759850758701758901758DFD758BFDD230
:041297008CD2AF2224
:100F08007590F0E59054F064F0603E7F017E001229
:100F1800114EE59054F064F0602F7FEFEF30E42934
:100F2800F590E59054F064F06017E59054F0440FA4
:100F3800FEE59054F0FDBDF0F8EEF4FEEFF42EFF60
:0B0F480022EF25E04401FF80D37F0072
:010F5300227B
:100E5700EF605A120DA50E85120E91130EA1140EF6
:100E670089220E95230EA5240EAD280E8D420E99CC
:100E7700430EA9440EB1480E9D8300000EB475279A
:100E87000122752702227527032275270422752759
:100E9700052275270622752722227527072275271F
:0E0EA700082275270922E4F5272275270B2261
:100C07007599EF3099FDC2997599013099FDC2998F
:100C17007599FF3099FDC2997599FF3099FDC29971
:100C27007599FF3099FDC2997599FF3099FDC29961
:100C37007599013099FDC299E4F5993099FDC299EA
:100C47007599033099FDC2997599533099FDC299E9
:100C5700E4F5993099FDC29975080075095785091A
:100C6700993099FDC299E4FF3098FDC2980FBF09EA
:100C7700F73098FDC29885992F3098FDC2988599CD
:100C8700293098FDC298859928E529FE7C00E4253E
:070C970028F513EC3EF512F5
:010C9E002233
:100C9F007599EF3099FDC2997599013099FDC299F7
:100CAF007599FF3099FDC2997599FF3099FDC299D9
:100CBF007599FF3099FDC2997599FF3099FDC299C9
:100CCF007599013099FDC299E4F5993099FDC29952
:100CDF007599033099FDC2997599013099FDC299A3
:100CEF00E4F5993099FDC2997508007509058509D4
:100CFF00993099FDC299E4FF3098FDC2980FBF0952
:100D0F00F73098FDC29885992F3098FDC298859934
:100D1F00293098FDC298859928E529FE7C00E425A5
:070D2F0028F513EC3EF5125C
:010D3600229A
:100B5B007599EF3099FDC2997599013099FDC2993C
:100B6B007599FF3099FDC2997599FF3099FDC2991E
:100B7B007599FF3099FDC2997599FF3099FDC2990E
:100B8B007599013099FDC299E4F5993099FDC29997
:100B9B007599043099FDC2997599023099FDC299E6
:100BAB008F993099FDC299EF2407F509E433F508C5
:100BBB00850928FF8F29852999209904C29980F9E5
:100BCB00852899209904C29980F9E4FF3098FDC2D9
:100BDB00980FBF09F73098FDC29885992F3098FD73
:100BEB00C2988599293098FDC298859928E529FEE8
:0B0BFB007C00E42528F513EC3EF51209
:010C060022CB
:100768007599EF3099FDC2997599013099FDC29933
:100778007599FF3099FDC2997599FF3099FDC29915
:100788007599FF3099FDC2997599FF3099FDC29905
:100798007599013099FDC299E4F5993099FDC2998E
:1007A8007599083099FDD29975991B3099FDC299B0
:1007B8008F993099FDC299E4F5993099FDC299E471
:1007C800F5993099FDC299E4F5993099FDC299756A
:1007D80099B43099FDC299EF24D8F509E433F508A6
:1007E800850928FF8F298529993099FDD29985286F
:1007F800993099FDC299E4FF3098FDC2980FBF095E
:10080800F73098FDC29885992F3098FDC298AD9918
:100818003098FDC298AC993098FDC2983098FDC2C6
:10082800983098FDC2988599293098FDD298859975
:1008380028E529FE7A00E42528F513EA3EF512AFEB
:0F08480005EDFEAD047C00E42DF50BEC3EF50A4A
:01085700227E
:1009F0007599EF3099FDD2997599013099FDC29999
:100A00007599FF3099FDC2997599FF3099FDC2998A
:100A10007599FF3099FDC2997599FF3099FDC2997A
:100A20007599013099FDC299E4F5993099FDC29903
:100A30007599033099FDC2997599103099FDC29945
:100A4000E4F5993099FDC299750800750914850976
:100A5000993099FDC299E4FF3098FDD2980FBF09F3
:100A6000F73098FDC29885992F3098FDC298AD99BE
:100A70003098FDC298AC993098FDC298859929307C
:100A800098FDC298859928E529FE7A00E42528F585
:100A900013EA3EF512AF05EDFEAD047C00E42DF542
:050AA0000BEC3EF50A1D
:010AA500222E
:100925007599EF3099FDC2997599013099FDC29974
:100935007599FF3099FDC2997599FF3099FDD29946
:100945007599FF3099FDC2997599FF3099FDC29946
:100955007599013099FDC299E4F5993099FDC299CF
:100965007599073099FDC29975990C3099FDC29911
:10097500AD07AF068F993099FDC2998D993099FDD4
:10098500C299E4F5993099FDC2997599013099FD9F
:10099500C299ED2415FDE433FC7E00ED2FF509EE3B
:1009A5003CF508850928FF8F298529993099FDC2CD
:1009B500998528993099FDC299E4FF3098FDC29830
:1009C5000FBF09F73098FDC29885992F3098FDC261
:1009D500988599293098FDC298859928E529FE7C46
:0A09E50000E42528F513EC3EF5129E
:0109EF0022E5
:100AA6007599EF3099FDC2997599013099FDC299F2
:100AB6007599FF3099FDC2997599FF3099FDC299D4
:100AC6007599FF3099FDC2997599FF3099FDD299B4
:100AD6007599013099FDC299E4F5993099FDC2994D
:100AE6007599033099FDC2997599113099FDC2998E
:100AF600E4F5993099FDC2997508007509158509BF
:100B0600993099FDC299E4FF3098FDC2980FBF094C
:100B1600F73098FDC29885992F3098FDC298AF9905
:100B26003098FDC298AE993098FDC2983098FDC2B3
:100B3600983098FDC2988599293098FDC298859974
:100B460028E42528F513E433F512E4AF062FF50B58
:040B5600E433F50A85
:010B5A002278
:100858001211FE7BFF7A0279237D017F01120F546A
:100868008005E52FB40205120AA680F6E52F7075FB
:100878001211FE7BFF7A0279307D027F01120F543C
:10088800AE0AAF0B7C007D64120D508F32AE0AAFFA
:100898000B7C007D0A120D507C007D0A120D508DD4
:1008A80033AE0AAF0B7C007D0A120D508D347BFFEE
:1008B8007A0279397D017F02120F547F8D1210CC94
:1008C800E5322430FF12129BE5332430FF12129BCD
:1008D800E5342430FF12129BC2B67FC47E09121180
:1008E8004ED2B68031E52FB4091C1211FE7BFF7A77
:1008F8000279417D017F01120F547BFF7A02794E04
:100908007D017F02800D1211FE7BFF7A02795B7DEB
:0D091800017F01120F547FD07E0702114EA7
:100536001211FE7BFF7A0279667D027F01120F544B
:100546008004E52F6005120C9F80F77F01120B5B7C
:100556001212878005E52FB401077F011207688014
:10056600F4E52F70281211FE7BFF7A02796F7D0168
:100576007F01120F547BFF7A02797CE4FD7F031220
:100586000F54120F08EF600302065680F5E52F643C
:100596000960030206561211FE7BFF7A02798B7DF3
:1005A600017F01120F548005E52FB402051209F0F0
:1005B60080F61211FEE52F7066AE0AAF0BFC7D6465
:1005C600120D508F36AE0AAF0B7C007D0A120D500D
:1005D6007C007D0A120D508D37AE0AAF0B7C007D74
:1005E6000A120D508D387BFF7A0279987D017F01C2
:1005F600120F547BFF7A0279397D017F02120F5464
:100606007F8D1210CCE5362430FF12129BE537247D
:1006160030FF12129BE5382430FF12129B801EE534
:100626002F601A7BFF7A0279A57D017F01120F5494
:100636007BFF7A0279B27D017F02120F547BFF7A2B
:1006460002797CE4FD7F03120F54120F08EF60FA63
:030656000211FE90
:10065900E4F5361211FE7BFF7A0279BDE4FD7F01D4
:10066900120F547F05782BE4F608DFFC7F05120F83
:10067900088F1AE51A64886062121142E51A70033C
:1006890075270AE527C394004033E527D394095019
:100699002C742B2536F8A627E536C394035014E5A8
:1006A900362488FF1210CC742B2536F8E62430FF47
:1006B90012129B0536E536B40403753603E527B4F3
:1006C90022B1E53670047F8880071536E53624881F
:1006D900FF1210CC7F2012129B8098E536C394023A
:1006E900401EE52C75F00AA47C00252DFDEC35F0A3
:1006F900FCE52B75F064A4AEF02DF50BEE3CF50A84
:10070900E536B40112E52B75F00AA4AEF07C00259C
:100719002CF50BEC3EF50AE5367005F50A852B0B31
:10072900AF0BAE0A120925E52FB4010D1211FE7B9C
:10073900FF7A0279CE7D01800B1211FE7BFF7A02CE
:1007490079DF7D027F01120F547BFF7A02797CE405
:0F075900FD7F02120F54120F08EF60FA0211FE1B
:10000300E4F5371211FE7BFF7A0279F07D017F015F
:10001300120F54E4F53674382536F8E4F60536E560
:1000230036B406F2120F088F1AE51A64886060125C
:100033001142E51A700375270AE527C39400402C83
:10004300E527D39409502574382537F8A627E537D3
:10005300C39406500DE5372489FF1210CC7F0F128D
:10006300129B0537E537B40703753706E527B42236
:10007300B8E53770097F891210CC7F20800C1537C3
:10008300E5372489FF1210CC7F4012129B809A120D
:1000930011FE1211FEE4F5377BFF7A0279FDFD7F35
:1000A30001120F54E4F536743C2536F8E4F60536B0
:1000B300E536B406F2120F088F1AE51A6488605BFE
:1000C300121142E51A700375270AE527C39400400D
:1000D3002CE527D394095025743C2537F8A627E54A
:1000E30037C39406500DE5372489FF1210CC7F0FD8
:1000F30012129B0537E537B40703753706E527B4B6
:1001030022B8E53770047F8980071537E5372489DE
:10011300FF1210CC7F2012129B809F1211FEE53834
:10012300653C60030201E7E539653D60030201E7D1
:10013300E53A653E60030201E7E53B653F60030284
:1001430001E7E53C654060030201E7E53D65416089
:10015300030201E7F53674382536F8E6FF742025E7
:1001630036F8A6070536E536B406EBE4F5367438FB
:100173002536F8E62430FF74102536F582E4340082
:10018300F583EFF00536E536B406E3E52A1475F09A
:1001930064A4F5417F057E001211C47540017410FB
:1001A3002540F582E43400F583E0FDAF4112124AA5
:1001B3007F0A7E001211C405410540E540C3940641
:1001C30040DC7BFF7A03790E7D01E4FF120F547B41
:1001D300FF7A02797CE4FD7F03120F54120F08EFBC
:1001E300703B80F87BFF7A03791BE4FDFF120F5409
:1001F3007BFF7A03792CE4FD7F01120F547BFF7A96
:1002030003793DE4FD7F02120F547BFF7A02797C70
:10021300E4FD7F03120F54120F08EF60FA0211FE80
:10107F001211FE7BFF7A0279307D027F01120F542D
:10108F00C2B67FC47E0912114ED2B67BFF7A0279A7
:0F109F007CE4FD7F03120F54120F08EF60FA225A
:1003D300E4F5337534011211FE7BFF7A03794E7D08
:1003E300017F01120F54E4F53274142532F8E4F658
:1003F3000532E532B406F2120F088F1AE51A648843
:10040300605B121142E51A700375270AE527C3944E
:1004130000402CE527D39409502574142533F8A6FE
:1004230027E533C39406500DE5332489FF1210CC1E
:100433007F0F12129B0533E533B40703753306E5CB
:1004430027B422B8E53370047F8980071533E53379
:100453002489FF1210CC7F2012129B809F1211FE61
:10046300E4F53274142532F8E62430FF7410253293
:10047300F582E43400F583EFF00532E532B406E3A8
:10048300E533B406051211A48F35E53564017070A8
:10049300F535120F08EF648570030205307BFF7A90
:1004A30003795BE4FDFF120F547BFF7A03796CE45D
:1004B300FD7F01120F547BFF7A03797DE4FD7F02F8
:1004C300120F547BFF7A03798EE4FD7F03120F54DE
:1004D300120F08120E57E52724FE6012146014143D
:1004E3006019240370AC12053675270880A4120620
:1004F30059809F12107F7527068097120003809200
:100503007BFF7A03799F7D027F01120F547BFF7A71
:100513000379A8E4FD7F02120F547BFF7A02797CF2
:10052300E4FD7F03120F54120F08EF60FAE4F51A8B
:030533000211FEB4
:100F9D007BFF7A0379B77D02E4FF120F547BFF7A52
:100FAD000379C07D017F01120F547BFF7A027923F3
:100FBD007D017F03120F54120F088F1A30B70912DB
:100FCD0011FE1208581211FEE51AB481091211FE14
:070FDD001203D31211FE22E2
:101232001212871212B71212191211FE120F9D7F8B
:08124200647E0012114E80F4DD
:100DD700021232E493A3F8E493A34003F68001F2EE
:100DE70008DFF48029E493A3F85407240CC8C3331D
:100DF700C4540F4420C8834004F456800146F6DFEC
:100E0700E4800B0102040810204080900FE4E47E88
:100E1700019360BCA3FF543F30E509541FFEE493E0
:100E2700A360010ECF54C025E060A840B8E493A3A7
:100E3700FAE493A3F8E493A3C8C582C8CAC583CAD2
:100E4700F0A3C8C582C8CAC583CADFE9DEE780BE8A
:0110180000D7
:100D3700BB010689828A83E0225002E722BBFE02BA
:090D4700E32289828A83E49322ED
:100D5000BC000BBE0029EF8DF084FFADF022E4CC87
:100D6000F875F008EF2FFFEE33FEEC33FCEE9DEC50
:100D7000984005FCEE9DFE0FD5F0E9E4CEFD22ED96
:100D8000F8F5F0EE8420D21CFEADF075F008EF2FE0
:100D9000FFED33FD4007985006D5F0F222C398FDD1
:050DA0000FD5F0EA226E
:100DA500D083D082F8E4937012740193700DA3A3DD
:100DB50093F8740193F5828883E4737402936860F1
:060DC500EFA3A3A380DFF1
:00000001FF
